{
  "_format": "hh-sol-artifact-1",
  "contractName": "SimpleStorage",
  "sourceName": "contracts/SimpleStorage.sol",
  "abi": [
    {
      "inputs": [],
      "name": "YourFavNumber",
      "outputs": [
        {
          "internalType": "uint256",
          "name": "",
          "type": "uint256"
        }
      ],
      "stateMutability": "view",
      "type": "function"
    },
    {
      "inputs": [],
      "name": "isYourNumberLuckey",
      "outputs": [
        {
          "internalType": "bool",
          "name": "",
          "type": "bool"
        }
      ],
      "stateMutability": "view",
      "type": "function"
    },
    {
      "inputs": [
        {
          "internalType": "uint256",
          "name": "_YourFavNumber",
          "type": "uint256"
        }
      ],
      "name": "setYourFavNumber",
      "outputs": [],
      "stateMutability": "nonpayable",
      "type": "function"
    }
  ],
  "bytecode": "0x608060405260008055348015601357600080fd5b50610234806100236000396000f3fe608060405234801561001057600080fd5b50600436106100415760003560e01c8063223e478f146100465780637b707adc14610062578063abc0fe2f14610080575b600080fd5b610060600480360381019061005b9190610111565b61009e565b005b61006a6100a8565b6040516100779190610159565b60405180910390f35b6100886100d0565b6040516100959190610183565b60405180910390f35b8060008190555050565b60008060026000546100ba91906101cd565b036100c857600190506100cd565b600090505b90565b60005481565b600080fd5b6000819050919050565b6100ee816100db565b81146100f957600080fd5b50565b60008135905061010b816100e5565b92915050565b600060208284031215610127576101266100d6565b5b6000610135848285016100fc565b91505092915050565b60008115159050919050565b6101538161013e565b82525050565b600060208201905061016e600083018461014a565b92915050565b61017d816100db565b82525050565b60006020820190506101986000830184610174565b92915050565b7f4e487b7100000000000000000000000000000000000000000000000000000000600052601260045260246000fd5b60006101d8826100db565b91506101e3836100db565b9250826101f3576101f261019e565b5b82820690509291505056fea2646970667358221220b5633e8e90d816675bfbb94eee389f7fbbe47f073a8391ca390ed733dd31b55364736f6c634300081a0033",
  "linkReferences": {},
  "deployedLinkReferences": {}
}